:4000000000800020110000000D0500000D05000008B5044B1A6803F53F5302331A6000F07DFA00BFFA46004010B5054C237833B9044B13B10448AFF300800123237010BDDC
:400040004081FF1F00000000F0110000084B10B51BB108490848AFF300800848036803B910BD074B002BFBD0BDE81040184700BF000000004481FF1FF0110000C880FF1F10
:400080000000000038B500F0E1FA0446474B1B7813F0FF0F7CD0A0F16803122B41D8DFE803F0313C404040404040404040264040400A11181F0001F007F8C043C0B200F076
:4000C000F7FF38BD01F014F8C043C0B201F004F838BD01F021F8C043C0B201F011F838BD01F02EF8C043C0B201F01EF838BD0021084600F0E7FB2E4800F078FB01222B4B18
:400100005A7038BD0021084600F0DCFB294800F06DFB0122254B9A7038BD0021084600F0D1FB224B5B7813F0FF0F15D0C4EB0423214D85FB0325DB17C3EB6515EDB2022146
:40014000002000F0BFFB204600F0DAFB284600F053FF0022154B5A70144B9B7813F0FF0F22D0C4EB0423144D85FB0325DB17C3EB6515EDB20221002000F0A4FB204600F059
:40018000BFFB284600F032FF0022084B9A7038BD2A2809D10021084600F094FB074800F025FB0122014B1A7038BD00BF5C81FF1FF4110000FC1100001F85EB510412000059
:4001C00008B50021682000F0B7FD0028F9D108BD10B5002411E0FFF7F3FF204600F03EFE0121682000F0E8FD002000F063FE044B185500F017FE0134E4B2072CEBD910BDAA
:400200006881FF1F10B5124CA078C0F3001000F077FBA07800F00F0000F072FB3A2000F0F3FA6078000900F06BFB607800F00F0000F066FB3A2000F0E7FA2078000900F091
:400240005FFB207800F00F0000F05AFB10BD00BF6881FF1F08B562B61A4800F09DFB00F0E7F900F021FB00F0EBFB00F013FF164B11229A7051225A7000241C7012221A71F8
:4002800010225A7118229A710522DA70204600F00FFF204600F020FF204600F031FF204600F042FF204600F0A7FEFFF791FF0421012000F007FBFFF7A5FF4FF4FA7000F0A5
:4002C00035FEF2E7850000006881FF1FFEE700BFF0B40022174611E050F82760F3B226F0FF0608E001EB420511F812406D78A5550132013BDBB2002BF4D101371B2FEBD998
:40030000F0BC7047064B1B78DBB203F00701054A11701B09013213704422034B1A707047CF0100496E5800407658004008B50A46002100F054FF08BD38B54FF49C72274B3C
:400340001A801823264A137040F2AF4102321180023213700222234B1A7008224FF040231A70032103F5007319701F4B1B78DBB21E490B701E4B1A8041F25122023B1A80A1
:40038000002419250CE01B4B1B7803F0010343EA440404F003044FF4F07000F0D9FE013D0DB1032CEFD115B90320FFF78FFF124B4FF480721A8007221A7000220F490A70F2
:4003C0004820023108701A700222033B1A700C4A137843F00303137038BD00BF80400040824000400043004008010049A146004022420040254200400440004006400040D0
:40040000A243004008B500F0DFFE08BD38B572B62D4A137843F00403137000240CE02B4D630019194A0011462A44084691882858FFF77CFF0134E4B2082CF0D924494FF07C
:400440009040FFF745FF234A137843F0020313701032137843F0020313701F4C237843F040032370A2F58632513A137843F010031370082219491A48FFF7C4FF08221949C7
:400480001948FFF7BFFF082218491948FFF7BAFF0A2218491848FFF7B5FF184A137843F008031370164D61232B70FFF745FF81232B700122134B1A70FFF724FF0E22214691
:4004C0001148FFF79FFF38BDE84600400C1200007000004803500140A043004028050048C2510040300500481251004038050048225100404005004830510040224300400C
:400500000048004004000840B043004008B500F02FFE03680C2B00D1FEE7FEE708B5104E104D16E029686B68AC68002204E051F8040B43F8040B0432A242F8D1E8680022BA
:4005400003E0002143F8041B04328242F9D11035013E002EE6D100F011FEFFF77BFEFEE7010000006812000008B5104A104B1A60104A136843F40073136000230AE0032B09
:4005800003D80D4A52F8231000E00C490C4A42F8231001332F2BF2D90A4B1A780A4B1A70074A0A4B1A60FFF731FF08BD0004FA050CED00E014ED00E0000000000D0500009B
:4005C0000080FF1FBC760040C080FF1F08ED00E07222084B1A702022A3F580731A700622613B1A70472210331A70002203F24F131A7070478665004010B500F0B1FD0446DA
:400600000A4A137843F020031370A2F58072137843F010031370FE32137843F01003137000F074FC204600F09FFD10BD9665004008B5054B1B7823B9FFF7CAFF0122024B9C
:400640001A70FFF7D9FF08BD6081FF1F084B1B78DBB213F0200F06D0064A1078C0B213F01E0F02D17047002070470020704700BF666400404664004010B50B4C237803F0D4
:400680009F032370237803F0F00323702378184340F010002070012000F05EFC237803F0EF03237010BD00BFC051004038B505460E4C237843F020032370237803F0BF036A
:4006C0002370002000F048FC237803F0F003237023781D4345F010052570012000F03CFC237803F0EF03237038BD00BFC051004070B5354B1A7802F08002D2B21A7033498F
:400700000A7802F0F00242F00F020A7001310A7802F0F0020A7001310A7802F0F0020A701A7802F0DF021A701A7842F040021A704FF4CA76002000F00FFC234D2B7843F00F
:4007400010032B70012000F007FC214B1C78E4B22B7803F0EF032B70002000F0FDFB04F00804E4B22B7843F010032B70012000F0F3FB2B7803F0EF032B7014B90A2000F0D3
:40078000EBFB013E0CB1002ED4D10F4A137803F0BF031370137803F08003DBB213700232137803F0F00313700132137803F0F00343F00F0313700132137803F0F00343F0EC
:4007C0000F03137070BD00BFC0510040C2510040C151004010B50446FFF78AFF2009FFF765FF04F00F00FFF761FF10BD38B505460078012404E0FFF7EDFF285D0134E4B260
:400800000028F8D138BD00BF08B5FFF7E3FF08BD10B50446FFF76CFF2009FFF72DFF04F00F00FFF729FF10BD08B5282000F07EFB0320FFF721FF052000F078FB0320FFF7C8
:400840001BFF0F2000F072FB0320FFF715FF012000F06CFB0220FFF70FFF052000F066FB0620FFF7D5FF0E20FFF7D2FF2C20FFF7CFFF0820FFF7CCFF0120FFF7C9FF0C20A8
:40088000FFF7C6FF0320FFF7C3FF052000F04EFB08BD00BF08B50C20FFF7BAFF0122014B1A7008BD6281FF1F08B5054B5B7823B9FFF7BAFF0122024B5A70FFF7EBFF08BD1F
:4008C0006281FF1F08B5032819D8DFE800F002070D1381F08000FFF79BFF08BDA1F14000C0B2FFF795FF08BDA1F16C00C0B2FFF78FFF08BDA1F12C00C0B2FFF789FF08BD39
:4009000010B584B000238DF80E30092211E0144BA3FB0013DB081C4603EB83035900431ADBB2303304A9114401F80C3C2046013AD2B20928EBD80A4BA3FB0013DB0803EB1A
:4009400083035900431ADBB2303304A9114401F80C3C01AB9818FFF749FF04B010BD00BFCDCCCCCC014B1B681864704708ED00E04001C0B2014B1870704700BF00E400E065
:400980000122014B1A60704700E100E00122014B1A60704780E100E010B50446FFF7F6FF2046FFF7DFFF0720FFF7E2FFFFF7E8FF10BD00BF38B50222114B1A7081220E3B77
:4009C0001A70082202331A700F2511331D70002401331C704FF400420A4B1A600721284600F0D8FA0849284600F0C0FA1022074B1A70074B1C70074B1C70074B1C7038BDE9
:400A0000D649004080E100E0690A00007081FF1F7681FF1F7E81FF1F7481FF1F08B500F09FFB064A137843F0040313701032137843F00403137000F097FB08BDA543004077
:400A400008B5074B1B7823B9FFF7B4FF0122044B1A70FFF7E3FF4FF40042024B1A6008BD6481FF1F00E100E038B5A54B1C78A54B1B7813F0400F00F03A81E4B214F0010F0B
:400A800000F01D819F4B1B78453B052B00F21481DFE813F006008200120112010600DF0004F0DF0504F00A04082C42D1954B1B78DBB2452B35D1944B1B7813F0FF0F10D09D
:400AC000924B1B681B78DBB2914A137004228C4B1A7001228F4B1A7046228A4B1A702C46EDE08D4B1B7813F0020F0DD08B4A137843F00A0313706022824B1A704FF4004227
:400B0000874B1A602C46DAE0864A137843F0100313701022844B1A700422023B1A702C46CDE00022764B1A704A22764B1A702C46C5E00A2C2BD1794A137843F0A00313706E
:400B4000754B1B7813F0020F14D06E4B1B7813F0080F01D0092300E00A23704A11780B4313706022674B1A704FF400426C4B1A602C46A4E06B4A137843F010031370102201
:400B8000694B1A700422023B1A702C4697E0002000F0CAF92C4692E014F0020F36D15D4B1A78D2B2584B1B78DBB29A4210D2594A1378DBB255490968CB5CDBB254490B7079
:400BC00004214F4B197013780133DBB2137076E0514B1B7813F0020F0CD0504A137843F00A0313706022474B1A704FF400424C4B1A6064E04B4A137843F0100313701022EE
:400C0000494B1A700422023B1A7058E0424B1B7813F0020F0CD0414A137843F09A0313706022384B1A704FF400423D4B1A6046E03C4A137843F01003137010223A4B1A70A1
:400C40000422023B1A70354A137843F09003137035E0364A1378DBB2354908682C490978C9B2C15413780133DBB213701278D2B2304B1B78DBB29A4203D21022204B1A70C3
:400C80001DE0254B1B7813F0020F0CD0234A137843F00903137060221A4B1A704FF400421F4B1A600BE01F4A137843F0100313700022134B1A7002E0002000F035F914F0DA
:400CC000200F1CD00F4B1B7813F0080F01D0012300E00223114A11780B431370114A137803F0EF0313701022064B1A7038BD054B1B7813F0100F02D11022024B1A7038BDFD
:400D0000D74900407081FF1F7581FF1F8081FF1FD84900407481FF1F7C81FF1F7681FF1F80E100E0D6490040D94900407E81FF1F7881FF1F7D81FF1F1A4B1B78DBB2102B5B
:400D400029D1194B1B7813F0080F26D14FF40042164B1A604000C0B229B140F001004922104B1A7002E045220E4B1A70104B1870012201331A700F4B1B7813F0010FFAD04A
:400D80000C4B1B7803F00A030A2B08D11022054B1A700320704702207047012070470020704700BF7081FF1FD949004080E100E0D8490040D7490040164B1B7813F0040F91
:400DC00023D04000C0B229B140F001004922124B1A7002E04522104B1A70104B1870122201331A700422023B1A700D4B1B7813F0010FFAD00A4B1B7803F00A030A2B06D145
:400E00001022054B1A7003207047022070470020704700BFD94900407081FF1FD8490040D74900400A4B1B7813F0040F0ED01023074A13700421023A1170064A1370064B42
:400E40001B7813F0210FFAD00020704702207047D94900407081FF1FD7490040114B1B7813F0040F1BD0104B18700422013B1A7046220E4B1A700E4B1B7813F0010FFAD08E
:400E80000B4B1B7813F0020F04D16022074B1A70002070476022054B1A70032070470220704700BFD9490040D84900407081FF1FD7490040114B1B7813F0040F1BD0104BE0
:400EC0001B78DBB2492B05D100220E4B1A704A220B4B1A700B4B1B7813F0010FFAD00A4B1B78DBB218B11021064A117004E06021034A117000E0002318467047D949004084
:400F00007081FF1FD7490040D8490040054A137843F0010313701032137843F001031370704700BFA243004001BE704710B5044605E0084B186800F00BF9A4F50044B4F574
:400F4000004FF6D8034B586800FB04F000F000F910BD00BFCC80FF1F08B5034B1B7A00FB03F000F0F5F808BDCC80FF1F70B504460E46074B1D681F2802D90020FFF7D4FF39
:400F800004F01F04103455F8240045F8246070BD08ED00E038B504460D46072902D90020FFF7C2FF1F2C02D90020FFF7BDFF04F01F0000F1604000F564406D01EDB205707F
:400FC00038BD00BF024A137843F080031370704774640040014B1870704700BF04640040014B1870704700BF44640040014B1870704700BF24640040014B1870704700BFDE
:4010000034640040014B1870704700BF84640040014B1878704700BF64640040014B1878704700BF5464004008B501E0FFF7F6FFFFF7EEFF10F0100FF8D108BD10B5134A87
:40104000137803F0C00343F009031370104C237843F001032370FF20FFF7BCFFFF20FFF7BFFF0020FFF7C2FF0020FFF7C5FF0020FFF7C8FF00F074F8237843F010032370AB
:4010800000F072F8FFF7D0FF10BD00BF746400409464004008B5054B1B7823B9FFF7CEFF0122024B1A70FFF78DFF08BD6581FF1F044A137803F0EF03000100F01000184397
:4010C0001070704710510040024B1878C0F30010704700BF11510040044A137803F0DF03400100F0200018431070704710510040024B1878C0F34010704700BF1151004036
:40110000044A137803F0BF03800100F0400018431070704710510040024B1878C0F38010704700BF11510040044A137803F07F03C001C0B218431070704700BF1051004092
:40114000014B1878C009704711510040000000000230800803D000BF01380046FCD17047EFF3108072B6704780F31088704700BF014B1868704700BF3C81FF1F0E4B70B5B5
:401180001E460E4C0025E41AA410A54204D056F8253098470135F8E700F054F8084B094C1E46E41AA4100025A54204D056F8253098470135F8E770BD5012000050120000E6
:4011C000501200005812000010B5431E0A44914204D011F8014B03F8014FF8E710BD03460244934202D003F8011BFAE770470000000000005320202020000000482020205C
:4012000020200000436F6E6563740000C84900401900005100401000405100403000F0510040100000000140001000140140000800400140000A004C01400002005001401C
:4012400020004300F8B500BFF8BC08BC9E4670474D00000069050000F8B500BFF8BC08BC9E4670472900000078120000C880FF1F7800000048000000000000000000E02E6B
:40128000C05D00001800000000366E010000000000000000000000000000000000000000000000000000000000000000421200000000000000000000000000000000000000
:4012C0000000000000000000000000000000000000000000000000000000000000000000000000000000000000000000DC80FF1F0000000000000000000000000000000074
:4013000000000000000000000000000000000000000000000000000000000000000000000000000000000000000000000000000000000000000000000000000000000000AD
:40134000000000000000000000000000000000000000000000000000000000000000000000000000000000000000000000000000000000000000000000000000000000006D
:40138000000000000000000000000000000000000000000000000000000000000000000000000000000000000000000000000000000000000000000000000000000000002D
:4013C00000000000000000000000000000000000000000000000000000000000000000000000000000000000000000000000000000000000000000000000000000000000ED
:020000040003F7
:0200000480007A
:4000000005520040026400400265004002030140520401402D0501404606014036070140010B0140010D01403E140140491501404B16014047170140011B01400240014092
:400040000141014003420140044301400A450140064601400447014001480140094901400B4C0140014D0140045001400251014010031105180219021C01840F8638840F7A
:4000800086728708E00802080401060E07020B040E0C0F0112101306200C2203260328012A062E103101330234103504360F3A803E104040410545D14652480F49FF4AFF93
:4000C0004BFF4DA04F04501852805407580459045A045B045C105D115F01604062C06440654066C068C06AC06CC06EC08406880696019A029B019C04AC01B001B101B40603
:40010000B820BE10C002C740C9FFCA07CBFFCC40CD20CEF0CF05D008D804D904DA04DC11DF01E040E1A8E240E3200046042406040B800C400E210F041040120613041780B1
:400140001A071D201E4021022202231827803102361039203B484102452049014A104B884F0C51105340540159015A64734087109F08C06DC2E8C48FCC21CE0ED021D208BB
:40018000D60FE00800070301040605080802090811081601170418061A011B021C0423042407270128012A062B102F10310633103407350837013F45402641044203440144
:4001C00045C0470E481249FF4AFF4BFF4C624DA04EF04F41500C54185604580459045A045B045F016640670269106A306B106D106E106F1284018A018B0391019A01A0018A
:40020000B102B501B601B880D804D904DC10DF010314064007280B040C800F241240171419801F20210222102418268027402C102D802FA831023614370139203D183F0230
:40024000401042204410464047504C044F2257085E02628063016620678187409120920294649620A001A304C076C2E2C468CAF0CCE1CEE4D0F0D220D680D8B0E008E008A6
:4002800002020501060309020C060E010F0112061301160519011A0124082B0131023208340737013A203E043F415401580459045B045F01801F85678613880C89678A130D
:4002C0008C088D228F419308940395449721980299019B069C0F9E10A013A20CA404A510A80CA908AC01AD08B118B21CB360B40FB507B902BA28D804D904DF01000602020C
:400300000408058006400704081009010A200C400E2A12201540172A180419081C081D041F04210222402440250126142B042C102F0A32133616388439A03B403D58580221
:4003400059085A9078107B048142838088028A208C048D448E118F0290889130922294449540974899809A409B2E9C40A001A104A220A30CA404A614A780AC04AF02C0FD91
:40038000C2EEC4F4CA74CCE5CE7ED60FEA01007F0663081C0A620C670E181204146018401C10201C2261240828182C242E803080321F36603A083B80560257105804590476
:4003C0005B045F018410850C871188108B038D098E088F10900A911C9204930294039510960C970C98109914A010A110A403A604AA05AC03AE04B010B20FB51FBA08BE01B0
:40040000C036C102C50BC6ECC80DC9FFCAFFCBFFCEF0CF44D00CD804D904DA04DF01E6C0EA40EB020068031404080640070608010A200B0C0C800D020E281004110412C07C
:40044000134014401540172818201A601B081C201D021E0221102680280429102A022B04302132013308384439243C023E024004430848204910504052205E406D186F015F
:40048000748075807728900892029464951097049E409F3DA001A304A480A504A615A780C0F7C2FEC4FFCA01CC07CE0ED006D204D610EA013080CC10A4803E10A480CE205E
:4004C00084809610A480E2100110041051045620570258408620C003D407D60487029010911095089C40A7029010911095089C40961003205F8083A0AA10C010D620E280EA
:40050000E420EA8010401320150879107C109010911095089C40C40EDE03AB2000030A0310011A01000303C0007F7F000000000000FBFB000000000000030F000F00000049
:400540000200010202000200000000000000000000000000000000000000000000000000000000000000000000000000000000000000000000000000000000000000000072
:40058000000000000000000000000000000000000000000000000000000000000000000000000000000000000000000000000000000000000000000000000000000000003B
:4005C00000000000000000000000000000000000000000000000000000000000000000000000000000000000000000000000000000000000000000000000000000000000FB
:4006000000000000000000000000000000000000000000000000000000000000000000000000000000000000000000000000000000000000000000000000000000000000BA
:40064000000000000000000000000000000000000000000000000000000000000000000000000000000000000000000000000000000000000000000000000000000000007A
:0200000490006A
:0400000000004005B7
:0200000490105A
:04000000BC90ACAF55
:0200000490303A
:020000001E7769
:0200000490402A
:4000000000000000000000000000000000000000000000000000000000000000000000000000000000000000000000000000000000000000000000000000000000000000C0
:400040000000000000000000000000000000000000000000000000000000000000000000000000000000000000000000000000000000000000000000000000000000000080
:400080000000000000000000000000000000000000000000000000000000000000000000000000000000000000000000000000000000000000000000000000000000000040
:4000C0000000000000000000000000000000000000000000000000000000000000000000000000000000000000000000000000000000000000000000000000000000000000
:0200000490501A
:0C00000000012E16106900012E1E2EE0DB
:00000001FF