:400000000080002011000000A90B0000A90B000008B5044B1A6803F53F5302331A6000F0E3FD00BFFA46004010B5054C237833B9044B13B10448AFF300800123237010BD2F
:400040004881FF1F000000003C280000084B10B51BB108490848AFF300800848036803B910BD074B002BFBD0BDE81040184700BF000000004C81FF1F3C280000C880FF1F3A
:400080000000000038B500F047FE0446A24B1B7813F0FF0F00F01182A0F16603142B5FD8DFE803F0485E323D5E5E5E535E5E5E5E5E275E5E5E0B1219200001F089FBC0432F
:4000C000C0B201F079FB38BD01F096FBC043C0B201F086FB38BD01F0A3FBC043C0B201F093FB38BD01F0B0FBC043C0B201F0A0FB38BD0021084600F069FF884800F0FAFE4D
:400100000122854B5A7038BD0021084600F05EFF834800F0EFFE01227F4B9A7038BD0021084600F053FF7F4800F0E4FE01227A4BDA7038BD0021084600F048FF7A4800F0F4
:40014000D9FE0122744B1A7138BD0021084600F03DFF764800F0CEFE01226F4B5A7138BD6D4B5B7813F0FF0F15D0C0EB0023704D85FB0325DB17C3EB6515EDB206210020E0
:4001800000F024FF204600F03FFF284601F0B8FA0022614B5A70604B9B7813F0FF0F15D0C4EB0423624D85FB0325DB17C3EB6515EDB20621002000F009FF204600F024FF9D
:4001C000284601F097FA0022534B9A70524BDB7813F0FF0F00F0B9804F4B9B7913F0FF0F50D0092C03D9204600F00EFF05E0002000F00AFF204600F007FF47490023CB7080
:400200008B71A3F13333A3FB0423DA0802EB82004300E31A03EB0213DBB2CA79013A032A00F29380DFE802F0020D1823414A53701CB90022384B5A7287E00122364B5A72C4
:4002400083E03D4A53701CB90022334B5A737CE00122314B5A7378E0384A53701CB900222D4B5A7471E001222B4B5A746DE0344A53701CB90022284B5A7566E00122264B94
:400280005A7562E00521002000F0A0FE204600F0BBFE3A2000F03CFE1F4901238B7103F1CC33A3FB0423DA0802EB82004300E31A03EB0213DBB2CA79013A032A45D8DFE8D6
:4002C00002F0020D18231B4A93701CB90022124B1A723AE00122104B1A7236E0164A93701CB900220C4B1A732FE001220A4B1A732BE0124A93701CB90022074B1A7424E0A9
:400300000122054B1A7420E00D4A9370D4B90022014B1A7519E000BF6481FF1F402800004C2800005828000064280000702800001F85EB51B081FF1FAC81FF1FC081FF1FC4
:400340009C81FF1F0122634B1A75624B1B7913F0FF0F00F0A1805F4B9B7913F0FF0F4FD0092C03D9204600F04FFE05E0002000F04BFE204600F048FE564900230B718B71C9
:40038000A3F13333A3FB0423DA0802EB82004300E31A03EB0213DBB2CA79013A032A7BD8DFE802F0020D18234B4A53701CB90022484BDA7270E00122464BDA726CE0474A01
:4003C00053701CB90022434B5A7365E00122414B5A7361E0424A53701CB900223D4BDA745AE001223B4BDA7456E03E4A53701CB90022384BDA754FE00122364BDA754BE002
:400400000521002000F0E2FD204600F0FDFD3A2000F07EFD2F4901238B7103F1CC33A3FB0423DA0802EB82004300E31A03EB0213DBB2CA79013A032A2ED8DFE802F0020DA8
:400440001823254A93701CB90022224B9A7223E00122204B9A721FE0204A93701CB900221C4B9A7318E001221A4B1A7314E01C4A93701CB90022174B9A740DE00122154BAA
:400480009A7409E0174A93701CB90022114B9A7502E001220F4B9A750E4B5B7913F0FF0F17D00821002000F091FD204600F0ACFD084BDC7100225A7138BD2A2809D1002157
:4004C000084600F083FD084800F014FD0122014B1A7038BD6481FF1FA881FF1FB881FF1FBC81FF1FB481FF1F8028000010B582B00020ADF804008DF806000D4C238B9BB269
:4005000001339BB22383014600F060FD094800F0F1FC208B80B200F077FD228B92B2064901A801F067FD01F041FB02B010BD00BF6481FF1F882800009428000008B500219B
:40054000682000F07DFF0028F9D108BD10B5002411E0FFF7F3FF204601F004F80121682000F0AEFF002001F029F8044B185500F0DDFF0134E4B2072CEBD910BDA081FF1FEC
:4005800010B50421012000F021FD124CA078C0F3011000F039FDA07800F00F0000F034FD3A2000F0B5FC6078000900F02DFD607800F00F0000F028FD3A2000F0A9FC207821
:4005C000000900F021FD207800F00F0000F01CFD10BD00BFA081FF1F30B583B00025ADF804508DF80650234CE38BA38301F07CFA284601F085FA01F095FA01F09FFA80B2E4
:40060000E083A28B40F6C3139A421AD8984218D9238B9BB201339BB223832946284600F0D5FC154800F066FC208B80B200F0ECFC228B92B2114901A801F0DCFC01A800F00B
:400640008DFB002001F078F980B20A4B1B8B9BB298420DD0074B1B8B9BB2984206D2054B188B0021C0B201F0FFF801E0014B188303B030BD6481FF1F98280000A4280000E3
:4006800008B5704B1B7A13F0FF0F04D16D4B5B7A13F0FF0F17D00021084600F097FC6A4800F028FC694B9A78D2B2694881785B78DBB2407801F03F01914208BF834202D19B
:4006C000012001F079F85F4B9B7A13F0FF0F04D15C4BDB7A13F0FF0F10D05E4B9A78D2B25B4881785B78DBB2407801F03F01914208BF834202D1002001F05EF8514B1B7BF6
:4007000013F0FF0F04D14F4B5B7B13F0FF0F10D0514B9A78D2B24E4881785B78DBB2407801F03F01914208BF834202D1012001F057F8444B9B7B13F0FF0F04D1414BDB7B68
:4007400013F0FF0F10D0454B9A78D2B2404881785B78DBB2407801F03F01914208BF834202D1002001F03CF8364B1B7C13F0FF0F04D1344B5B7C13F0FF0F10D0384B9A7847
:40078000D2B2334881785B78DBB2407801F03F01914208BF834202D1012001F035F8294B9B7C13F0FF0F04D1264BDB7C13F0FF0F10D02C4B9A78D2B2254881785B78DBB28A
:4007C000407801F03F01914208BF834202D1002001F01AF81B4B1B7D13F0FF0F04D1194B5B7D13F0FF0F10D01F4B9A78D2B2184881785B78DBB2407801F03F01914208BF6E
:40080000834202D1012001F013F80E4B9B7D13F0FF0F04D10B4BDB7D13F0FF0F10D0134B9A78D2B20A4881785B78DBB2407801F03F01914208BF834202D1002000F0F8FF4C
:4008400008BD00BF6481FF1FA8280000B081FF1FA081FF1FA881FF1FAC81FF1FB881FF1FC081FF1FBC81FF1F9C81FF1FB481FF1F08B562B61A4800F013FC1A4801F0B8F928
:4008800000F03CFA00F094FB00F05EFC00F086FF01F01CF9002000F08FFF002000F0A0FF002000F0B1FF002000F0C2FF002000F021FF002000F024FF00F0D2FF002108465D
:4008C00000F0D2FFFFF75CFEFFF740FEFFF7D8FEFFF782FE4FF4FA7000F0ACFEF2E700BF85000000ED040000FEE700BFF0B40022174611E050F82760F3B226F0FF0608E0ED
:4009000001EB420511F812406D78A5550132013BDBB2002BF4D101371B2FEBD9F0BC704708B50A46002101F05CFB08BDF8B5164B1B78DBB2154E3478E4B2154F3D78EDB2EF
:4009400003F00701134A11701B090132137044F00303337045F003033B7010220E4B1A7040230E4A13700232137001220C4B1A70202203331A700A2000F072FE3D70347016
:400980004422084B1A70F8BDCF010049F8460040F94600406E5800402D51004001590040205B00407658004008B501F00FFB08BD38B54FF49C72304B1A8018232F4A1370FB
:4009C00040F2AF41023211800232137004222C492C48FFF7E9FF02222B4B1A7008224FF040231A70032103F500731970274B1B78DBB227490B70274B1A8041F25122023B6E
:400A00001A80002419250CE0234B1B7803F0010343EA440404F003044FF4F07001F0F8F8013D0DB1032CEFD115B90320FFF75CFF1A4B4FF480721A8007221A70002218494B
:400A40000A704820023108701A700222033B1A7004220A331A70134A137843F003031370013A137843F001031370013A137843F08003137038BD00BF8040004082400040AD
:400A80007C050048004100400043004008010049A146004022420040254200400440004006400040A243004038B572B62D4A137843F00403137000240CE02B4D6300191985
:400AC0004A0011462A44084691882858FFF728FF0134E4B2082CF0D924494FF09040FFF705FF234A137843F0020313701032137843F0020313701F4C237843F0400323705B
:400B0000A2F58632513A137843F010031370082219491A48FFF748FF082219491948FFF743FF0A2218491948FFF73EFF0A2218491848FFF739FF184A137843F0080313704D
:400B4000164D61232B70FFF733FF81232B700122134B1A70FFF7EAFE0E2221461148FFF723FF38BDE8460040B82800007000004803500140A043004054050048C2510040F5
:400B80005C0500481251004064050048205100407005004830510040224300400048004004000840B043004008B501F0E3F903680C2B00D1FEE7FEE708B5094B1A681044AF
:400BC000084BC31A802B02DC054B186005E001F0D1F90C2303604FF0FF32104608BD00BFCC80FF1FE881FF1F08B5104E104D16E029686B68AC68002204E051F8040B43F888
:400C0000040B0432A242F8D1E868002203E0002143F8041B04328242F9D11035013E002EE6D101F0ADF9FFF723FEFEE7010000004829000008B5104A104B1A60104A1368FF
:400C400043F40073136000230AE0032B03D80D4A52F8231000E00C490C4A42F8231001332F2BF2D90A4B1A780A4B1A70074A0A4B1A60FFF719FF08BD0004FA050CED00E087
:400C800014ED00E000000000A90B00000080FF1FBC760040C080FF1F08ED00E07222084B1A702022A3F580731A700622613B1A70472210331A70002203F24F131A70704756
:400CC0008665004010B500F0ABFF04460A4A137843F020031370A2F58072137843F010031370FE32137843F01003137000F092FC204600F099FF10BD9665004008B5054B86
:400D00001B7823B9FFF7CAFF0122024B1A70FFF7D9FF08BD8481FF1F084B1B78DBB213F0200F06D0064A1078C0B213F01E0F02D17047002070470020704700BF66640040DF
:400D400046640040034B1B7813F0040FFAD1024B18707047646500404765004038B5074B1B782BB938BDFFF7EDFF0134A4B201E005460024285D0028F5D138BD8481FF1F53
:400D800010B50B4C237803F09F032370237803F0F00323702378184340F010002070012000F05EFC237803F0EF03237010BD00BFC051004038B505460E4C237843F020039C
:400DC0002370237803F0BF032370002000F048FC237803F0F003237023781D4345F010052570012000F03CFC237803F0EF03237038BD00BFC051004070B5354B1A7802F0B1
:400E00008002D2B21A7033490A7802F0F00242F00F020A7001310A7802F0F0020A7001310A7802F0F0020A701A7802F0DF021A701A7842F040021A704FF4CA76002000F04D
:400E40000FFC234D2B7843F010032B70012000F007FC214B1C78E4B22B7803F0EF032B70002000F0FDFB04F00804E4B22B7843F010032B70012000F0F3FB2B7803F0EF03FD
:400E80002B7014B90A2000F0EBFB013E0CB1002ED4D10F4A137803F0BF031370137803F08003DBB213700232137803F0F00313700132137803F0F00343F00F031370013207
:400EC000137803F0F00343F00F03137070BD00BFC0510040C2510040C151004010B50446FFF78AFF2009FFF765FF04F00F00FFF761FF10BD38B505460078012404E0FFF7F1
:400F0000EDFF285D0134E4B20028F8D138BD00BF08B5FFF7E3FF08BD10B50446FFF76CFF2009FFF72DFF04F00F00FFF729FF10BD08B5282000F07EFB0320FFF721FF052001
:400F400000F078FB0320FFF71BFF0F2000F072FB0320FFF715FF012000F06CFB0220FFF70FFF052000F066FB0620FFF7D5FF0E20FFF7D2FF2C20FFF7CFFF0820FFF7CCFF30
:400F80000120FFF7C9FF0C20FFF7C6FF0320FFF7C3FF052000F04EFB08BD00BF08B50C20FFF7BAFF0122014B1A7008BD8681FF1F08B5054B5B7823B9FFF7BAFF0122024B58
:400FC0005A70FFF7EBFF08BD8681FF1F08B5032819D8DFE800F002070D1381F08000FFF79BFF08BDA1F14000C0B2FFF795FF08BDA1F16C00C0B2FFF78FFF08BDA1F12C0054
:40100000C0B2FFF789FF08BD10B584B000238DF80E30092211E0144BA3FB0013DB081C4603EB83035900431ADBB2303304A9114401F80C3C2046013AD2B20928EBD80A4BE0
:40104000A3FB0013DB0803EB83035900431ADBB2303304A9114401F80C3C01AB9818FFF749FF04B010BD00BFCDCCCCCC014B1B681864704708ED00E04001C0B2014B187016
:40108000704700BF00E400E00122014B1A60704700E100E00122014B1A60704780E100E010B50446FFF7F6FF2046FFF7DFFF0720FFF7E2FFFFF7E8FF10BD00BF38B5022208
:4010C000114B1A7081220E3B1A70082202331A700F2511331D70002401331C704FF400420A4B1A600721284600F0D8FA0849284600F0C0FA1022074B1A70074B1C70074B6F
:401100001C70074B1C7038BDD649004080E100E071110000C381FF1FC681FF1FCE81FF1FC481FF1F08B500F07BFD064A137843F0040313701032137843F00403137000F060
:4011400073FD08BDA543004008B5074B1B7823B9FFF7B4FF0122044B1A70FFF7E3FF4FF40042024B1A6008BD8881FF1F00E100E038B5A54B1C78A54B1B7813F0400F00F0E8
:401180003A81E4B214F0010F00F01D819F4B1B78453B052B00F21481DFE813F006008200120112010600DF0004F0DF0504F00A04082C42D1954B1B78DBB2452B35D1944BB5
:4011C0001B7813F0FF0F10D0924B1B681B78DBB2914A137004228C4B1A7001228F4B1A7046228A4B1A702C46EDE08D4B1B7813F0020F0DD08B4A137843F00A031370602278
:40120000824B1A704FF40042874B1A602C46DAE0864A137843F0100313701022844B1A700422023B1A702C46CDE00022764B1A704A22764B1A702C46C5E00A2C2BD1794A6F
:40124000137843F0A0031370754B1B7813F0020F14D06E4B1B7813F0080F01D0092300E00A23704A11780B4313706022674B1A704FF400426C4B1A602C46A4E06B4A137811
:4012800043F0100313701022694B1A700422023B1A702C4697E0002000F0CAF92C4692E014F0020F36D15D4B1A78D2B2584B1B78DBB29A4210D2594A1378DBB25549096843
:4012C000CB5CDBB254490B7004214F4B197013780133DBB2137076E0514B1B7813F0020F0CD0504A137843F00A0313706022474B1A704FF400424C4B1A6064E04B4A137816
:4013000043F0100313701022494B1A700422023B1A7058E0424B1B7813F0020F0CD0414A137843F09A0313706022384B1A704FF400423D4B1A6046E03C4A137843F0100363
:40134000137010223A4B1A700422023B1A70354A137843F09003137035E0364A1378DBB2354908682C490978C9B2C15413780133DBB213701278D2B2304B1B78DBB29A42F4
:4013800003D21022204B1A701DE0254B1B7813F0020F0CD0234A137843F00903137060221A4B1A704FF400421F4B1A600BE01F4A137843F0100313700022134B1A7002E019
:4013C000002000F035F914F0200F1CD00F4B1B7813F0080F01D0012300E00223114A11780B431370114A137803F0EF0313701022064B1A7038BD054B1B7813F0100F02D1B2
:401400001022024B1A7038BDD7490040C381FF1FC581FF1FD081FF1FD8490040C481FF1FCC81FF1FC681FF1F80E100E0D6490040D9490040CE81FF1FC881FF1FCD81FF1F43
:401440001A4B1B78DBB2102B29D1194B1B7813F0080F26D14FF40042164B1A604000C0B229B140F001004922104B1A7002E045220E4B1A70104B1870012201331A700F4BF3
:401480001B7813F0010FFAD00C4B1B7803F00A030A2B08D11022054B1A700320704702207047012070470020704700BFC381FF1FD949004080E100E0D8490040D7490040D1
:4014C000164B1B7813F0040F23D04000C0B229B140F001004922124B1A7002E04522104B1A70104B1870122201331A700422023B1A700D4B1B7813F0010FFAD00A4B1B7840
:4015000003F00A030A2B06D11022054B1A7003207047022070470020704700BFD9490040C381FF1FD8490040D74900400A4B1B7813F0040F0ED01023074A13700421023A81
:401540001170064A1370064B1B7813F0210FFAD00020704702207047D9490040C381FF1FD7490040114B1B7813F0040F1BD0104B18700422013B1A7046220E4B1A700E4BFF
:401580001B7813F0010FFAD00B4B1B7813F0020F04D16022074B1A70002070476022054B1A70032070470220704700BFD9490040D8490040C381FF1FD7490040114B1B7872
:4015C00013F0040F1BD0104B1B78DBB2492B05D100220E4B1A704A220B4B1A700B4B1B7813F0010FFAD00A4B1B78DBB218B11021064A117004E06021034A117000E0002398
:4016000018467047D9490040C381FF1FD7490040D8490040054A137843F0010313701032137843F001031370704700BFA243004001BE704710B5044605E0084B186800F02D
:40164000E7FAA4F50044B4F5004FF6D8034B586800FB04F000F0DCFA10BD00BFD080FF1F08B5034B1B7A00FB03F000F0D1FA08BDD080FF1F70B504460E46074B1D681F28CC
:4016800002D90020FFF7D4FF04F01F04103455F8240045F8246070BD08ED00E038B504460D46072902D90020FFF7C2FF1F2C02D90020FFF7BDFF04F01F0000F1604000F5DA
:4016C00064406D01EDB2057038BD00BF024A137843F080031370704774640040014B1870704700BF04640040014B1870704700BF44640040014B1870704700BF24640040FB
:40170000014B1870704700BF34640040014B1870704700BF84640040014B1878704700BF64640040014B1878704700BF5464004008B501E0FFF7F6FFFFF7EEFF10F0100FE6
:40174000F8D108BD10B5134A137803F0C00343F009031370104C237843F001032370FF20FFF7BCFFFF20FFF7BFFF0020FFF7C2FF0020FFF7C5FF0020FFF7C8FF00F050FA8A
:40178000237843F01003237000F04EFAFFF7D0FF10BD00BF746400409464004008B5054B1B7823B9FFF7CEFF0122024B1A70FFF78DFF08BD8981FF1F044A137803F0EF0376
:4017C000000100F0100018431070704710510040024B1878C0F30010704700BF11510040044A137803F0DF03400100F0200018431070704710510040024B1878C0F34010EB
:40180000704700BF11510040044A137803F0BF03800100F0400018431070704710510040024B1878C0F38010704700BF11510040044A137803F07F03C001C0B2184310708A
:40184000704700BF10510040014B1878C00970471151004008B500F041FA00F049FA08BD08B5FFF7F7FF08BD30B583B00C468DF8070000F07DFAB4F5006F52D22509A4EBAF
:401880000514A4B200F020FB00284CD101230DF107022146402000F097FA044607282FD1234B1B7813F0020FFAD0214B1B7813F0020F06D01E4B1B789B0805D04FF0FF34CF
:4018C00003E04FF0FF3400E00024E4B9194A537812782946402000F0B3FA072816D1144B1B7813F0020FFAD0114B1B7813F0020F0FD00F4B1B789B0810D04FF0FF340DE037
:40190000012809D10AE04FF0FF3407E04FF0FF3404E04FF0FF3401E04FF0FF3400F0FAFA02E0012400E00424204603B030BD00BF22470040E081FF1F38B5044600F070F9D6
:40194000054600F0FFF904F1804000F500400478E4B200F005FA284600F066F9204638BD08B50A280FD00C2802D0082806D102E04FF4805209E04FF4807206E00020FFF745
:4019800057FE002201E04FF480620021094B198042F2107303FB02F303F6C413064A82FB0302DB17C3EBE223044A1360044B198008BD00BFDA81FF1FAD8BDB68D481FF1F17
:4019C000D881FF1F10B500F02BF904461E4A137843F0010313701032137843F0010313701A3A137843F0010313701032137843F00103137002F5AA521232137843F00303FE
:401A000013701822114B1A70013B1A7842F040021A701A7802F0FC021A70CE22053B1A700222A3F597530C3B1A70094A137843F0080313700A20FFF713FE0422054B1A603A
:401A4000204600F0F1F810BDAB43004006590040275B004080E200E010B504460A280DD00C2802D0082804D101E0C22207E0422205E00020FFF7DCFDC22200E08222034BC6
:401A80001A702046FFF76CFF10BD00BF0259004008B5102000F080F807210220FFF7FEFD07490220FFF7E6FD064A137843F0060313700A20FFF7D0FF0022034B1A8008BD7B
:401AC000951B000001590040DC81FF1F08B5054B1B7823B9FFF7DCFF0122024B1A70FFF771FF08BD8A81FF1F044B1A7802F0FB021A701A7842F001021A707047005900408B
:401B000010B5074B1B7813F0010401D10028F8D024B10120FFF7A4FD014B1B78204610BD01590040034B188880B2034B1B88C01A00B27047A05B0040D881FF1F10B4124BD1
:401B40001B881BB233B1104B1B881BB203EB83035C0001E00D4B1C680D4B1988411A09B242F2107303FB01F2002903DD04EBD470401003E004EBD47040104042831893FB65
:401B8000F4F000B210BC7047DA81FF1FD481FF1FDC81FF1F704700BF034B1A7800F0F80010431870704700BF02410040024B1878C0F34010704700BF82450040014B1B6867
:401BC0005864704708ED00E04001C0B2014B1870704700BF01E400E00222014B1A60704700E100E00222014B1A60704780E100E010B50446FFF7F6FF2046FFF7DFFF07203C
:401C0000FFF7E2FFFFF7E8FF10BD00BF000000000230800803D000BF01380046FCD17047EFF3108072B6704780F31088704700BF10B500F09DF800F047F910BB012000F0ED
:401C400025F9072818D102210F4800F0A3F802280AD102E00120FFF703FD0C4B1B7813F0020FF7D0002409E0084B1B7813F0020FE9D04FF0FF3401E04FF0FF3400F04AF9AE
:401C800000E00424204610BDE081FF1F2247004010B500F06DF800F017F9D0B900F056F90446072812D102E00120FFF7D9FC0A4B1B7813F0020FF7D0074B1B7813F0020FF9
:401CC00004D0054B1B789B0800D1002400F022F900E00424204610BD2247004008B5FFF7D7FF034610B9FFF7A3FF0346184608BD08B5FFF795FF0F4A137843F0080313701B
:401D00001032137843F008031370C8220A4B1A700A4A137843F0100313701032137843F010031370064B1B7813F0200FFAD0FFF77BFF08BDA043004001470040AC4300401F
:401D400000470040054A137843F001031370034B1B7813F0020FFAD0704700BF02470040024A137803F0FE03137070470247004008B5FFF755FF064A137843F00803137059
:401D80001032137843F008031370FFF74DFF08BDA043004070B506460D4600240CE00120FFF75EFC064B1B7813F0010FF7D0054B1B7833550134E4B2AC42F3D3204670BDEB
:401DC000224700402047004030B43E2801D81F2B03D93F2827D90F2B27D8174C247814F0020F24D0154CB6252570D4252570012525700234247814F0020F1AD10F4C2070CB
:401E0000C1F300202070C9B22170591EC9B22170002104E0545C094804700131C9B29942F8D3072006E0012004E0012002E0042000E0092030BC70472247004020470040AD
:401E400030B4104C247814F0020F15D00E4CB6252570D8252570052525700234247814F0020F0BD1084C2070080A2070C9B2217022702370072002E0042000E0092030BCD5
:401E8000704700BF22470040204700400C4B1B7813F0020F0FD00B4BB6221A70E1221A700E221A7002331B7813F0020F05D1054B187007207047042070470920704700BF9E
:401EC000224700402047004010B5FFF7A9FE0F4B1B78A3B901220D4B1A700D4B1B6813F0010F0ED00A4A136823F00103136000BF00BF00BF0122054B5A60002402E0042425
:401F000000E00024FFF790FE204610BD8C81FF1F0400084008B5FFF783FE0A4B00221A705B68012B0AD1084A136843F00103136000BF00BF00BF0022024B5A60FFF774FE2B
:401F400008BD00BF8C81FF1F04000840074B1B7813F0020F08D0064BB6221A70E0221A700D221A7007207047042070472247004020470040014B1868704700BF4081FF1F73
:401F80000E4B70B51E460E4C0025E41AA410A54204D056F8253098470135F8E700F0C2FC084B094C1E46E41AA4100025A54204D056F8253098470135F8E770BD3029000053
:401FC00030290000302900003829000010B5431E0A44914204D011F8014B03F8014FF8E710BD03460244934202D003F8011BFAE7704700000EB400B54FF402719CB0ADF864
:4020000014106FF00041049107914FF6FF711DAB02900690084853F8042BADF81610006802A9019300F064F8029B00221A701CB05DF804EB03B070474081FF1F2DE9F04793
:402040008E6882469E420C46914698463ED88A8912F4906F3AD02568096902236F1A656905EB450595FBF3F57B1C43449D4238BF1D4653050FD5294600F040FB064698B194
:402080003A462169FFF7A2FFA38923F4906343F08003A38113E02A4600F08EFB064670B92169504600F0DEFA0C23CAF80030A3894FF0FF3043F04003A381BDE8F08726613E
:4020C0003E44266046466561ED1BA560464528BF464649463246206800F0A8FAA36800209B1BA36023681E442660BDE8F08700002DE9F04F9DB003938B8980461C060D4660
:4021000016460DD50B695BB9402100F0F7FA2860286118B90C23C8F80030CDE040236B610023099320238DF82930DFF89CB130238DF82A3037463C4614F8013B1BB9B7EBC7
:40214000060910D003E0252BF9D02746F3E74B46324629464046FFF771FF013000F0A780099B4B4409933B78002B00F0A08000234FF0FF3204930793059206938DF85330C8
:402180001A930126052221784E4800F041FA671C049B38B14B4A3C46801A06FA00F018430490EFE7D90644BF20228DF853201A0744BF2B228DF8532022782A2A03D0079A72
:4021C00000210A200BE0039A111D12680391002A10DA524243F00200079204900BE027463B780134303B092B03D800FB02320121F5E701B107923B782E2B1ED17B782A2B51
:402200000AD1039B02371A1D1B680392002BB8BF4FF0FF33059310E0002319460593781C0A2407463A780130303A092A03D804FB01210123F5E703B10591032239782248D3
:4022400000F0E6F940B14023CBEB000003FA00F0049B013718430490397806221B487E1C8DF8281000F0D4F988B1194B33B9039B073323F007030833039314E003AB0093FE
:402280002A46144B04A94046AFF3008007E003AB00932A460F4B04A9404600F093F8B0F1FF3F824603D0099B5344099342E7AB895B0601D4099801E04FF0FF301DB0BDE814
:4022C000F08F00BFF0280000F6280000FA280000000000003D2000002DE9F04791461F460A698B6806469342B8BF1346C9F8003091F843200C46DDF8208012B10133C9F8AF
:4023000000302368990642BFD9F800300233C9F80030256815F0060510D104F1190A07E00123524639463046C04701301AD00135E368D9F800209B1A9D42F1DB94F84330FA
:402340002268003318BF012392060FD5E118302081F843005A1C94F845102244023382F8431003E04FF0FF30BDE8F08704F1430239463046C0470130F4D02268D9F8005022
:40238000E36802F00602042A08BF5D1B2269A3680CBF25EAE57500259342C4BF9B1AED184FF000091A344D4509D00123224639463046C0470130D5D009F10109F3E700200D
:4023C000BDE8F0872DE9F04317460A7E85B06E2A984606460C460C9B01F1430E00F0AE8011D8632A22D009D8002A00F0BB80582A40F0CA8081F84520834955E0642A1ED04D
:40240000692A1CD0C0E0732A00F0B08009D86F2A2ED0702A40F0B8800A6842F020020A603EE0752A24D0782A3AD0ADE01A6801F14205111D1960136884F84230A8E0216850
:402440001A6811F0800F02D0111D196008E011F0400F02F10401196002D0B2F9003000E01368002B3CDA2D225B4284F8432037E021681A6811F0800F02D0111D196007E002
:4024800011F0400F02F10401196001D0138800E01368227E5C496F2A14BF0A2208221BE078225A4984F845202268186812F0800F00F104051D6003D1550601D5038800E0F2
:4024C0000368D00744BF42F0200222601BB9226822F0200222601022002084F8430001E049490A226568002DA56008DB206820F0040020602BB9002D7DD175460CE0002BCE
:4025000079D07546B3FBF2F002FB1033CB5C05F8013D03460028F5D1082A0BD12368DA0708D5236962689A42DEBF302305F8013C05F1FF35C5EB0E0323612EE008681A680C
:4025400010F0800F496903D0101D1860136808E010F0400F02F104001860136801D0198000E0196000232361754616E01A68111D1960156800216268284600F049F808B102
:40258000401B6060636804E004F1420584F8422001232361002384F84330CDF800803B4603AA21463046FFF797FE013002D14FF0FF3026E023692A4639463046C047013001
:4025C000F5D023689B0710D5002504F1190907E001234A4639463046C0470130E7D00135E368039A9B1A9D42F2DBE068039B9842B8BF184605E00B7804F1420584F84230A3
:402600008AE705B0BDE8F083012900001229000010B5C9B202449042034605D01C7801308C42F8D1184610BD002010BD884210B501EB020301D8421E0BE09842FBD2811829
:40264000D21AD34204D013F8014D01F8014DF8E710BD994204D011F8014B02F8014FF8E710BD000038B50546002944D051F8043C0C1F002BB8BFE41800F0D4F81E4A1368D9
:40268000114613B96360146030E0A3420DD92268A018834201BF18685B681218226063600C6023E0A24203D813465A68002AF9D118681918A1420BD12168014458188242BD
:4026C000196013D110685268014419605A600DE002D90C232B6009E021686018824201BF106852680918216062605C602846BDE8384000F098B838BD9881FF1F70B5CD1C8C
:4027000025F0030508350C2D38BF0C25002D064601DBA94202D90C23336046E000F082F8234B1C681A462146A1B10B685B1B0ED40B2B03D90B60CC18CD501EE08C420BBF87
:4027400063684B681360636018BF0C4615E00C464968E9E7174C23681BB9304600F052F820602946304600F04DF8431C18D0C41C24F00304A0420DD12560304600F053F870
:4027800004F10B00231D20F00700C31A0ED05A42E25070BD211A304600F034F80130EBD10C233360304600F03EF8002070BD00BF9881FF1F9481FF1FF8B5074615460E46D5
:4027C00021B91146BDE8F840FFF798BF1AB9FFF749FF2846F8BD00F027F885420ED929463846FFF78BFF044650B131462A46FFF7EDFB31463846FFF735FF01E03046F8BDE5
:402800002046F8BD38B5064C0023054608462360FEF7D2F9431C02D1236803B12B6038BDE481FF1F7047704751F8040C0028BEBF091851F8043CC0180438704700000000EA
:4028400048616C6C2020202025000000526F6F6D20202020250000004F4E202020202020202000004F464620202020202020000053656C6563743A2020202020000000005E
:40288000436F6E65637400005761726E696E67204D2023006D2564005761726E696E67205420230074256400507565646520696D7072696D69720000C8490040190000517F
:4028C00000401000405100403000F0510040100000000140001000140140000800400140000A004C014000020050014020004300232D302B2000686C4C006566674546474B
:40290000003031323334353637383941424344454600303132333435363738396162636465660000F8B500BFF8BC08BC9E4670474D000000350C0000F8B500BFF8BC08BCA2
:402940009E4670472900000058290000C880FF1F80000000A000000000000000E881FF1F0000E02EC05D00001800000000366E01000000000000000000000000000000001D
:4029800000000000000000000000000000000000EE280000000000000000000000000000000000000000000000000000000000000000000000000000000000000000000001
:4029C00000000000000000000000000000000000E080FF1F000000000000000000000000000000000000000000000000000000000000000000000000000000000000000059
:402A00000000000000000000000000000000000000000000000000000000000000000000000000000000000000000000000000000000000000000000000000000000000096
:402A40000000000000000000000000000000000000000000000000000000000000000000000000000000000000000000000000000000000000000000000000000000000056
:402A80000000000000000000000000000000000000000000000000000000000000000000000000000000000000000000000000000000000000000000000000000000000016
:402AC00000000000000000000000000000000000000000000000000000000000000000000000000000000000000000000000000000000000000000000000000000000000D6
:020000040003F7
:0200000480007A
:4000000001450040055200400264004002650040520401402D050140460601403807014002090140020B01403E140140491501404B16014048170140011B0140044001404F
:400040000341014006420140044301400B4501400A4601400747014003480140094901400B4C0140014D01400450014002510140150110051103180219021C01840F8638E8
:40008000840F867202080401060E07020B040E0C0F0112101306200C2203260328012A062E103101330434103502360F3A803E104040410545D14652480F49FF4AFF4BFF2D
:4000C0004DA04F04501852805407580459045A045B045C105D115F01604062C06440654066C068C06AC06CC06EC08406880696019A029B019C04AC01B001B101B406B82075
:40010000BE10C002C740C9FFCA07CBFFCC40CD20CEF0CF05D008D804D904DA04DC11DF01E040E1A8E240E3200046042406040B800C400E210F0410401206130417801A0768
:400140001D201E4020082102220A27803102361039203B484102452049014A104B884F0C51105340540159015A647340A404B004C06DC2E8C48FCC21CE0ED021D208D60FE4
:40018000EA0200070301040605080802090811081601170418061A011B021C0423042407270128012A062B102F10310633103407350837013F45402641044203440145C020
:4001C000470E481249FF4AFF4BFF4C624DA04EF04F41500C54185604580459045A045B045F016640670269106A306B106D106E106F1284018A018B0391019A01A001B102DC
:40020000B501B601B880D804D904DC10DF010314064007280B040C800F241240171419801F20210222102418268027402C102D802FA831023614370139203D183F02401093
:4002400042204410464047504C044F2257085E02628063016440662067019120920294649620A001A304B608C076C2E2C468CAF0CCE1CEE4D0F0D220D680D8B0EE01EC4090
:40028000EE01E820EA0202020501060309020C060E010F0112061301160519011A0124082B0131023208340737013A203E043F415401580459045B045F01801F856786134B
:4002C000880C89678A138C088D228F419308940395449721980299019B069C0F9E10A013A20CA404A510A80CA908AC01AD08B118B21CB360B40FB507B902BA28D804D904D5
:40030000DF01000602020408058006400704081009010A200C400E2A12201540172A180419081C081D041F04210222402440250126142B042C102F0A32133616388439A0A1
:400340003B403D58580259085A9078107B048142838088028A208C048D448E118F0290889130922294449540974899809A409B2E9C40A001A104A220A30CA404A614A78045
:40038000AC04AF02C0FDC2EEC4F4CA74CCE5CE7ED60FEA01007F0663081C0A620C670E181204146018401C10201C2261240828182C242E803080321F36603A083B80560278
:4003C0005710580459045B045F018410850C871188108B038D098E088F10900A911C9204930294039510960C970C98109914A010A110A403A604AA05AC03AE04B010B20FE5
:40040000B51FBA08BE01C036C102C50BC6ECC80DC9FFCAFFCBFFCEF0CF44D00CD804D904DA04DF01E6C0EA40EB020068031404080640070608010A200B0C0C800D020E2822
:400440001004110412C0134014401540172818201A601B081C201D021E0221102680280429102A022B04302132013308384439243C023E02400443084820491050405220F7
:400480005E406D186F01748075807728900892029464951097049E409F3DA001A304A480A504A615A780AC40C0F7C2FEC4FFCA01CC07CE0ED006D204D610EA013140330843
:4004C0003720CC709D409F20A7083E109D40A708AF20CE20EA4096109D40AB08EE800110041013805104530256105C80C003C402D407D6041A809010911095089E10A70208
:40050000AF80B080C608E8049010911095089E10AA40B702EC029610AD40EE1003205F8083A0AA10C010D620E280E420EA8012101320150879107C109010911095089E106C
:40054000C40EDE03AB2000030A0310011A01003F03C00000007F7F000000000000FBFB0000000000200000230F000F00100000000200010202000200000000001000180128
:40058000000000000000000000000000000000000000000000000000000000000000000000000000000000000000000000000000000000000000000000000000000000003B
:4005C00000000000000000000000000000000000000000000000000000000000000000000000000000000000000000000000000000000000000000000000000000000000FB
:4006000000000000000000000000000000000000000000000000000000000000000000000000000000000000000000000000000000000000000000000000000000000000BA
:40064000000000000000000000000000000000000000000000000000000000000000000000000000000000000000000000000000000000000000000000000000000000007A
:0200000490006A
:0400000000004005B7
:0200000490105A
:04000000BC90ACAF55
:0200000490303A
:02000000E7DF38
:0200000490402A
:4000000000000000000000000000000000000000000000000000000000000000000000000000000000000000000000000000000000000000000000000000000000000000C0
:400040000000000000000000000000000000000000000000000000000000000000000000000000000000000000000000000000000000000000000000000000000000000080
:400080000000000000000000000000000000000000000000000000000000000000000000000000000000000000000000000000000000000000000000000000000000000040
:4000C0000000000000000000000000000000000000000000000000000000000000000000000000000000000000000000000000000000000000000000000000000000000000
:0200000490501A
:0C00000000012E16106900012E26F848A1
:00000001FF