:400000000080002011000000350700003507000008B5044B1A6803F53F5302331A6000F0A9FB00BFFA46004010B5054C237833B9044B13B10448AFF300800123237010BD5B
:400040004881FF1F00000000C4230000084B10B51BB108490848AFF300800848036803B910BD074B002BFBD0BDE81040184700BF000000004C81FF1FC4230000C880FF1F34
:400080000000000038B500F00DFC0446864B1B7813F0FF0F00F0FA80A0F16603142B5FD8DFE803F0485E323D5E5E5E535E5E5E5E5E275E5E5E0B1219200001F04FF9C043DC
:4000C000C0B201F03FF938BD01F05CF9C043C0B201F04CF938BD01F069F9C043C0B201F059F938BD01F076F9C043C0B201F066F938BD0021084600F02FFD6C4800F0C0FC85
:400100000122694B5A7038BD0021084600F024FD674800F0B5FC0122634B9A7038BD0021084600F019FD634800F0AAFC01225E4BDA7038BD0021084600F00EFD5E4800F0C8
:400140009FFC0122584B1A7138BD0021084600F003FD5A4800F094FC0122534B5A7138BD514B5B7813F0FF0F15D0C0EB0023544D85FB0325DB17C3EB6515EDB20621002020
:4001800000F0EAFC204600F005FD284601F07EF80022454B5A70444B9B7813F0FF0F15D0C4EB0423464D85FB0325DB17C3EB6515EDB20621002000F0CFFC204600F0EAFC20
:4001C000284601F05DF80022374B9A70364BDB7813F0FF0F22D0344B9B7913F0FF0F10D0092C03D9204600F0D5FC05E0002000F0D1FC204600F0CEFC2B4B0022DA709A713B
:400200000CE00521002000F0A7FC204600F0C2FC3A2000F043FC0122234B9A71224B1B7913F0FF0F22D0204B9B7913F0FF0F10D0092C03D9204600F0ADFC05E0002000F047
:40024000A9FC204600F0A6FC174B0022DA709A710CE00521002000F07FFC204600F09AFC3A2000F01BFC01220F4B9A710E4B5B7913F0FF0F16D00821002000F06DFC20466A
:4002800000F088FC0022084B5A7138BD2A2809D10021084600F060FC0A4800F0F1FB0122014B1A7038BD00BF6481FF1FC8230000D4230000E0230000EC230000F8230000C1
:4002C0001F85EB510824000008B5012001F03AF801F032FA08BD00BF08B50021682000F075FE0028F9D108BD10B5002411E0FFF7F3FF204600F0FCFE0121682000F0A6FE80
:40030000002000F021FF044B185500F0D5FE0134E4B2072CEBD910BD8881FF1F10B5FFF7E3FF0421012000F017FC124CA078C0F3001000F02FFCA07800F00F0000F02AFCF1
:400340003A2000F0ABFB6078000900F023FC607800F00F0000F01EFC3A2000F09FFB2078000900F017FC207800F00F0000F012FC10BD00BF8881FF1F30B583B00025ADF80A
:4003800004508DF80650194C6389238101F072F9284601F07BF901F08BF901F095F980B26081228940F6C3139A421DD898421BD9284601F087F880B2441CA4B22946E0B2C6
:4003C00001F018F82946284600F0C6FB084800F057FB204600F0DEFB2246064901A801F0CDFB01A800F080FA03B030BD6481FF1F102400001C24000008B562B6164800F047
:4004000015FC164801F0BAF900F03EFA00F096FB00F060FC00F088FF01F01EF9002000F091FF002000F0A2FF002000F0B3FF002000F0C4FF002000F023FF002000F026FFE8
:4004400000F0D4FFFFF76AFFFFF796FF4FF4FA7000F0B6FEF6E700BF85000000C9020000FEE700BFF0B40022174611E050F82760F3B226F0FF0608E001EB420511F81240D5
:400480006D78A5550132013BDBB2002BF4D10137182FEBD9F0BC704708B50A46002101F064FB08BDF8B5164B1B78DBB2154E3478E4B2154F3D78EDB203F00701134A117024
:4004C0001B090132137044F00303337045F003033B7010220E4B1A7040230E4A13700232137001220C4B1A70202203331A700A2000F07CFE3D7034704422084B1A70F8BD72
:40050000CF010049F8460040F94600406E5800402D51004001590040205B00407658004008B501F017FB08BD38B54FF49C72304B1A8018232F4A137040F2AF410232118088
:400540000232137004222C492C48FFF7E9FF02222B4B1A7008224FF040231A70032103F500731970274B1B78DBB227490B70274B1A8041F25122023B1A80002419250CE0F1
:40058000234B1B7803F0010343EA440404F003044FF4F07001F000F9013D0DB1032CEFD115B90320FFF75CFF1A4B4FF480721A8007221A70002218490A7048200231087022
:4005C0001A700222033B1A7004220A331A70134A137843F003031370013A137843F001031370013A137843F08003137038BD00BF8040004082400040AC0400480041004046
:400600000043004008010049A146004022420040254200400440004006400040A243004038B572B6304A137843F00403137000240CE02E4D630019194A0011462A440846F0
:4006400091882858FFF728FF0134E4B2072CF0D927494FF09040FFF705FF264A137843F0020313701032137843F002031370224C237843F040032370A2F58632513A1378CF
:4006800043F0100313700A221C491D48FFF748FF08221C491C48FFF743FF08221B491C48FFF73EFF08221B491B48FFF739FF0A221A491B48FFF734FF1A4A137843F0080387
:4006C0001370194D61232B70FFF72EFF81232B700122164B1A70FFF7E5FE0E2221461448FFF71EFF38BD00BFE8460040202400006400004803500140A04300407C04004812
:400700000051004088040048C251004090040048125100409804004822510040A004004830510040224300400048004004000840B043004008B501F0E1F903680C2B00D197
:40074000FEE7FEE708B5094B1A681044084BC31A802B02DC054B186005E001F0CFF90C2303604FF0FF32104608BD00BFCC80FF1FC881FF1F08B5104E104D16E029686B682A
:40078000AC68002204E051F8040B43F8040B0432A242F8D1E868002203E0002143F8041B04328242F9D11035013E002EE6D101F0ABF9FFF721FEFEE701000000AC2400003D
:4007C00008B5104A104B1A60104A136843F40073136000230AE0032B03D80D4A52F8231000E00C490C4A42F8231001332F2BF2D90A4B1A780A4B1A70074A0A4B1A60FFF704
:400800000FFF08BD0004FA050CED00E014ED00E000000000350700000080FF1FBC760040C080FF1F08ED00E07222084B1A702022013B1A700622A3F25F131A7047221033CB
:400840001A70002203F5A7731A7070478665004010B500F0A9FF04460A4A137843F020031370013A137843F010031370013A137843F01003137000F093FC204600F098FF65
:4008800010BD00BF9665004008B5054B1B7823B9FFF7CAFF0122024B1A70FFF7D9FF08BD7081FF1F084B1B78DBB213F0200F06D0064A1078C0B213F01E0F02D170470020FB
:4008C00070470020704700BF6565004045650040034B1B7813F0040FFAD1024B18707047646500404765004038B5074B1B782BB938BDFFF7EDFF0134A4B201E0054600240C
:40090000285D0028F5D138BD7081FF1F10B50B4C237803F09F032370237803F0F00323702378184340F010002070012000F05EFC237803F0EF03237010BD00BFC05100402C
:4009400038B505460E4C237843F020032370237803F0BF032370002000F048FC237803F0F003237023781D4345F010052570012000F03CFC237803F0EF03237038BD00BF2C
:40098000C051004070B5354B1A7802F08002D2B21A7033490A7802F0F00242F00F020A7001310A7802F0F0020A7001310A7802F0F0020A701A7802F0DF021A701A7842F0B7
:4009C00040021A704FF4CA76002000F00FFC234D2B7843F010032B70012000F007FC214B1C78E4B22B7803F0EF032B70002000F0FDFB04F00804E4B22B7843F010032B70AA
:400A0000012000F0F3FB2B7803F0EF032B7014B90A2000F0EBFB013E0CB1002ED4D10F4A137803F0BF031370137803F08003DBB213700232137803F0F003137001321378E5
:400A400003F0F00343F00F0313700132137803F0F00343F00F03137070BD00BFC0510040C2510040C151004010B50446FFF78AFF2009FFF765FF04F00F00FFF761FF10BD43
:400A800038B505460078012404E0FFF7EDFF285D0134E4B20028F8D138BD00BF08B5FFF7E3FF08BD10B50446FFF76CFF2009FFF72DFF04F00F00FFF729FF10BD08B528209E
:400AC00000F07EFB0320FFF721FF052000F078FB0320FFF71BFF0F2000F072FB0320FFF715FF012000F06CFB0220FFF70FFF052000F066FB0620FFF7D5FF0E20FFF7D2FFE7
:400B00002C20FFF7CFFF0820FFF7CCFF0120FFF7C9FF0C20FFF7C6FF0320FFF7C3FF052000F04EFB08BD00BF08B50C20FFF7BAFF0122014B1A7008BD7281FF1F08B5054BC5
:400B40005B7823B9FFF7BAFF0122024B5A70FFF7EBFF08BD7281FF1F08B5032819D8DFE800F002070D1381F08000FFF79BFF08BDA1F14000C0B2FFF795FF08BDA1F16C0097
:400B8000C0B2FFF78FFF08BDA1F12C00C0B2FFF789FF08BD10B584B000238DF80E30092211E0144BA3FB0013DB081C4603EB83035900431ADBB2303304A9114401F80C3C5A
:400BC0002046013AD2B20928EBD80A4BA3FB0013DB0803EB83035900431ADBB2303304A9114401F80C3C01AB9818FFF749FF04B010BD00BFCDCCCCCC014B1B681864704789
:400C000008ED00E04001C0B2014B1870704700BF00E400E00122014B1A60704700E100E00122014B1A60704780E100E010B50446FFF7F6FF2046FFF7DFFF0720FFF7E2FFAA
:400C4000FFF7E8FF10BD00BF38B50222114B1A7081220E3B1A70082202331A700F2511331D70002401331C704FF400420A4B1A600721284600F0D8FA0849284600F0C0FAB7
:400C80001022074B1A70074B1C70074B1C70074B1C7038BDD649004080E100E0FD0C0000A081FF1FA681FF1FAE81FF1FA481FF1F08B500F079FD064A137843F0040313701F
:400CC0001032137843F00403137000F071FD08BDA543004008B5074B1B7823B9FFF7B4FF0122044B1A70FFF7E3FF4FF40042024B1A6008BD7481FF1F00E100E038B5A54B62
:400D00001C78A54B1B7813F0400F00F03A81E4B214F0010F00F01D819F4B1B78453B052B00F21481DFE813F006008200120112010600DF0004F0DF0504F00A04082C42D135
:400D4000954B1B78DBB2452B35D1944B1B7813F0FF0F10D0924B1B681B78DBB2914A137004228C4B1A7001228F4B1A7046228A4B1A702C46EDE08D4B1B7813F0020F0DD04C
:400D80008B4A137843F00A0313706022824B1A704FF40042874B1A602C46DAE0864A137843F0100313701022844B1A700422023B1A702C46CDE00022764B1A704A22764BE5
:400DC0001A702C46C5E00A2C2BD1794A137843F0A0031370754B1B7813F0020F14D06E4B1B7813F0080F01D0092300E00A23704A11780B4313706022674B1A704FF4004267
:400E00006C4B1A602C46A4E06B4A137843F0100313701022694B1A700422023B1A702C4697E0002000F0CAF92C4692E014F0020F36D15D4B1A78D2B2584B1B78DBB29A420C
:400E400010D2594A1378DBB255490968CB5CDBB254490B7004214F4B197013780133DBB2137076E0514B1B7813F0020F0CD0504A137843F00A0313706022474B1A704FF4A5
:400E800000424C4B1A6064E04B4A137843F0100313701022494B1A700422023B1A7058E0424B1B7813F0020F0CD0414A137843F09A0313706022384B1A704FF400423D4B28
:400EC0001A6046E03C4A137843F01003137010223A4B1A700422023B1A70354A137843F09003137035E0364A1378DBB2354908682C490978C9B2C15413780133DBB2137007
:400F00001278D2B2304B1B78DBB29A4203D21022204B1A701DE0254B1B7813F0020F0CD0234A137843F00903137060221A4B1A704FF400421F4B1A600BE01F4A137843F09A
:400F4000100313700022134B1A7002E0002000F035F914F0200F1CD00F4B1B7813F0080F01D0012300E00223114A11780B431370114A137803F0EF0313701022064B1A7081
:400F800038BD054B1B7813F0100F02D11022024B1A7038BDD7490040A081FF1FA581FF1FB081FF1FD8490040A481FF1FAC81FF1FA681FF1F80E100E0D6490040D9490040FE
:400FC000AE81FF1FA881FF1FAD81FF1F1A4B1B78DBB2102B29D1194B1B7813F0080F26D14FF40042164B1A604000C0B229B140F001004922104B1A7002E045220E4B1A70B6
:40100000104B1870012201331A700F4B1B7813F0010FFAD00C4B1B7803F00A030A2B08D11022054B1A700320704702207047012070470020704700BFA081FF1FD94900405C
:4010400080E100E0D8490040D7490040164B1B7813F0040F23D04000C0B229B140F001004922124B1A7002E04522104B1A70104B1870122201331A700422023B1A700D4B1A
:401080001B7813F0010FFAD00A4B1B7803F00A030A2B06D11022054B1A7003207047022070470020704700BFD9490040A081FF1FD8490040D74900400A4B1B7813F0040F17
:4010C0000ED01023074A13700421023A1170064A1370064B1B7813F0210FFAD00020704702207047D9490040A081FF1FD7490040114B1B7813F0040F1BD0104B18700422CB
:40110000013B1A7046220E4B1A700E4B1B7813F0010FFAD00B4B1B7813F0020F04D16022074B1A70002070476022054B1A70032070470220704700BFD9490040D84900403D
:40114000A081FF1FD7490040114B1B7813F0040F1BD0104B1B78DBB2492B05D100220E4B1A704A220B4B1A700B4B1B7813F0010FFAD00A4B1B78DBB218B11021064A1170C4
:4011800004E06021034A117000E0002318467047D9490040A081FF1FD7490040D8490040054A137843F0010313701032137843F001031370704700BFA243004001BE704756
:4011C00010B5044605E0084B186800F0E5FAA4F50044B4F5004FF6D8034B586800FB04F000F0DAFA10BD00BFD080FF1F08B5034B1B7A00FB03F000F0CFFA08BDD080FF1F81
:4012000070B504460E46074B1D681F2802D90020FFF7D4FF04F01F04103455F8240045F8246070BD08ED00E038B504460D46072902D90020FFF7C2FF1F2C02D90020FFF7D2
:40124000BDFF04F01F0000F1604000F564406D01EDB2057038BD00BF024A137843F080031370704777640040014B1870704700BF07640040014B1870704700BF4764004033
:40128000014B1870704700BF27640040014B1870704700BF37640040014B1870704700BF87650040014B1878704700BF67650040014B1878704700BF5764004008B501E035
:4012C000FFF7F6FFFFF7EEFF10F0100FF8D108BD08B5134A137803F0C00343F0090313702032137843F001031370FF20FFF7BCFFFF20FFF7BFFF0020FFF7C2FF0020FFF72F
:40130000C5FF0020FFF7C8FF00F04EFA054A137843F01003137000F04BFAFFF7CFFF08BD776400409765004008B5054B1B7823B9FFF7CEFF0122024B1A70FFF78DFF08BD9C
:401340007581FF1F044A137803F0EF03000100F0100018431070704710510040024B1878C0F30010704700BF11510040044A137803F0DF03400100F020001843107070471E
:4013800010510040024B1878C0F34010704700BF11510040044A137803F0BF03800100F0400018431070704710510040024B1878C0F38010704700BF11510040044A137811
:4013C00003F07F03C001C0B218431070704700BF10510040014B1878C00970471151004008B500F03FFA00F047FA08BD08B5FFF7F7FF08BD30B583B00C468DF8070000F025
:401400007BFAB4F5006F52D22509A4EB0514A4B200F01EFB00284CD101230DF107022146402000F095FA044607282FD1234B1B7813F0020FFAD0214B1B7813F0020F06D0CF
:401440001E4B1B789B0805D04FF0FF3403E04FF0FF3400E00024E4B9194A537812782946402000F0B1FA072816D1144B1B7813F0020FFAD0114B1B7813F0020F0FD00F4B4C
:401480001B789B0810D04FF0FF340DE0012809D10AE04FF0FF3407E04FF0FF3404E04FF0FF3401E04FF0FF3400F0F8FA02E0012400E00424204603B030BD00BF22470040F7
:4014C000C081FF1F38B5044600F06EF9054600F0FDF904F1804000F500400478E4B200F003FA284600F064F9204638BD08B50A280FD00C2802D0082806D102E04FF48052FD
:4015000009E04FF4807206E00020FFF757FE002201E04FF480620021094B198042F2107303FB02F303F6C413064A82FB0302DB17C3EBE223044A1360044B198008BD00BFE8
:40154000BA81FF1FAD8BDB68B481FF1FB881FF1F10B500F029F904461E4A137843F0010313701032137843F0010313701A3A137843F0010313701032137843F00103137078
:4015800002F5AA521232137843F0030313701822114B1A70013B1A7842F040021A701A7802F0FC021A70CE22053B1A700222A3F597530C3B1A70094A137843F008031370E5
:4015C0000A20FFF713FE0422054B1A60204600F0EFF810BDAB43004006590040275B004080E200E010B504460A280DD00C2802D0082804D101E0C22207E0422205E00020B1
:40160000FFF7DCFDC22200E08222034B1A702046FFF76CFF10BD00BF0259004008B5102000F080F807210220FFF7FEFD07490220FFF7E6FD064A137843F0060313700A200E
:40164000FFF7D0FF0022034B1A8008BD2117000001590040BC81FF1F08B5054B1B7823B9FFF7DCFF0122024B1A70FFF771FF08BD7681FF1F044B1A7802F0FB021A701A7836
:4016800042F001021A7070470059004010B5074B1B7813F0010401D10028F8D024B10120FFF7A4FD014B1B78204610BD01590040034B188880B2034B1B88C01A00B270471A
:4016C000A05B0040B881FF1F10B4124B1B881BB233B1104B1B881BB203EB83035C0001E00D4B1C680D4B1988411A09B242F2107303FB01F2002903DD04EBD470401003E065
:4017000004EBD47040104042831893FBF4F000B210BC7047BA81FF1FB481FF1FBC81FF1F704700BF034B1A7800F0F80010431870704700BF02410040024B187800F001007B
:40174000704700BF80450040014B1B685864704708ED00E04001C0B2014B1870704700BF01E400E00222014B1A60704700E100E00222014B1A60704780E100E010B50446C2
:40178000FFF7F6FF2046FFF7DFFF0720FFF7E2FFFFF7E8FF10BD00BF0230800803D000BF01380046FCD17047EFF3108072B6704780F31088704700BF10B500F09DF800F042
:4017C00047F910BB012000F025F9072818D102210F4800F0A3F802280AD102E00120FFF705FD0C4B1B7813F0020FF7D0002409E0084B1B7813F0020FE9D04FF0FF3401E0BA
:401800004FF0FF3400F04AF900E00424204610BDC081FF1F2247004010B500F06DF800F017F9D0B900F056F90446072812D102E00120FFF7DBFC0A4B1B7813F0020FF7D0EF
:40184000074B1B7813F0020F04D0054B1B789B0800D1002400F022F900E00424204610BD2247004008B5FFF7D7FF034610B9FFF7A3FF0346184608BD08B5FFF795FF0F4AF2
:40188000137843F0080313701032137843F008031370C8220A4B1A700A4A137843F0100313701032137843F010031370064B1B7813F0200FFAD0FFF77BFF08BDA04300400F
:4018C00001470040AC43004000470040054A137843F001031370034B1B7813F0020FFAD0704700BF02470040024A137803F0FE03137070470247004008B5FFF755FF064A73
:40190000137843F0080313701032137843F008031370FFF74DFF08BDA043004070B506460D4600240CE00120FFF760FC064B1B7813F0010FF7D0054B1B7833550134E4B268
:40194000AC42F3D3204670BD224700402047004030B43E2801D81F2B03D93F2827D90F2B27D8174C247814F0020F24D0154CB6252570D4252570012525700234247814F0EF
:40198000020F1AD10F4C2070C1F300202070C9B22170591EC9B22170002104E0545C094804700131C9B29942F8D3072006E0012004E0012002E0042000E0092030BC70479B
:4019C000224700402047004030B4104C247814F0020F15D00E4CB6252570D8252570052525700234247814F0020F0BD1084C2070080A2070C9B2217022702370072002E023
:401A0000042000E0092030BC704700BF22470040204700400C4B1B7813F0020F0FD00B4BB6221A70E1221A700E221A7002331B7813F0020F05D1054B18700720704704205F
:401A400070470920704700BF224700402047004010B5FFF7A9FE0F4B1B78A3B901220D4B1A700D4B1B6813F0010F0ED00A4A136823F00103136000BF00BF00BF0122054B3B
:401A80005A60002402E0042400E00024FFF790FE204610BD7881FF1F0400084008B5FFF783FE0A4B00221A705B68012B0AD1084A136843F00103136000BF00BF00BF00224B
:401AC000024B5A60FFF774FE08BD00BF7881FF1F04000840074B1B7813F0020F08D0064BB6221A70E0221A700D221A7007207047042070472247004020470040014B1868F2
:401B0000704700BF4081FF1F0E4B70B51E460E4C0025E41AA410A54204D056F8253098470135F8E700F0B0FC084B094C1E46E41AA4100025A54204D056F8253098470135F9
:401B4000F8E770BD9424000094240000942400009C24000010B5431E0A44914204D011F8014B03F8014FF8E710BD03460244934202D003F8011BFAE7704700000EB400B5AE
:401B80004FF402719CB0ADF814106FF00041049107914FF6FF711DAB02900690084853F8042BADF81610006802A9019300F064F8029B00221A701CB05DF804EB03B070479D
:401BC0004081FF1F2DE9F0478E6882469E420C46914698463ED88A8912F4906F3AD02568096902236F1A656905EB450595FBF3F57B1C43449D4238BF1D4653050FD52946AD
:401C000000F040FB064698B13A462169FFF7A2FFA38923F4906343F08003A38113E02A4600F08EFB064670B92169504600F0DEFA0C23CAF80030A3894FF0FF3043F04003C9
:401C4000A381BDE8F08726613E44266046466561ED1BA560464528BF464649463246206800F0A8FAA36800209B1BA36023681E442660BDE8F08700002DE9F04F9DB003936C
:401C80008B8980461C060D4616460DD50B695BB9402100F0F7FA2860286118B90C23C8F80030CDE040236B610023099320238DF82930DFF89CB130238DF82A3037463C46BB
:401CC00014F8013B1BB9B7EB060910D003E0252BF9D02746F3E74B46324629464046FFF771FF013000F0A780099B4B4409933B78002B00F0A08000234FF0FF3204930793C7
:401D0000059206938DF853301A930126052221784E4800F041FA671C049B38B14B4A3C46801A06FA00F018430490EFE7D90644BF20228DF853201A0744BF2B228DF8532020
:401D400022782A2A03D0079A00210A200BE0039A111D12680391002A10DA524243F00200079204900BE027463B780134303B092B03D800FB02320121F5E701B107923B7803
:401D80002E2B1ED17B782A2B0AD1039B02371A1D1B680392002BB8BF4FF0FF33059310E0002319460593781C0A2407463A780130303A092A03D804FB01210123F5E703B19E
:401DC000059103223978224800F0E6F940B14023CBEB000003FA00F0049B013718430490397806221B487E1C8DF8281000F0D4F988B1194B33B9039B073323F00703083378
:401E0000039314E003AB00932A46144B04A94046AFF3008007E003AB00932A460F4B04A9404600F093F8B0F1FF3F824603D0099B5344099342E7AB895B0601D4099801E0AD
:401E40004FF0FF301DB0BDE8F08F00BF52240000582400005C24000000000000C51B00002DE9F04791461F460A698B6806469342B8BF1346C9F8003091F843200C46DDF80E
:401E8000208012B10133C9F800302368990642BFD9F800300233C9F80030256815F0060510D104F1190A07E00123524639463046C04701301AD00135E368D9F800209B1AD1
:401EC0009D42F1DB94F843302268003318BF012392060FD5E118302081F843005A1C94F845102244023382F8431003E04FF0FF30BDE8F08704F1430239463046C04701306C
:401F0000F4D02268D9F80050E36802F00602042A08BF5D1B2269A3680CBF25EAE57500259342C4BF9B1AED184FF000091A344D4509D00123224639463046C0470130D5D020
:401F400009F10109F3E70020BDE8F0872DE9F04317460A7E85B06E2A984606460C460C9B01F1430E00F0AE8011D8632A22D009D8002A00F0BB80582A40F0CA8081F8452050
:401F8000834955E0642A1ED0692A1CD0C0E0732A00F0B08009D86F2A2ED0702A40F0B8800A6842F020020A603EE0752A24D0782A3AD0ADE01A6801F14205111D1960136857
:401FC00084F84230A8E021681A6811F0800F02D0111D196008E011F0400F02F10401196002D0B2F9003000E01368002B3CDA2D225B4284F8432037E021681A6811F0800FE8
:4020000002D0111D196007E011F0400F02F10401196001D0138800E01368227E5C496F2A14BF0A2208221BE078225A4984F845202268186812F0800F00F104051D6003D1B2
:40204000550601D5038800E00368D00744BF42F0200222601BB9226822F0200222601022002084F8430001E049490A226568002DA56008DB206820F0040020602BB9002DD6
:402080007DD175460CE0002B79D07546B3FBF2F002FB1033CB5C05F8013D03460028F5D1082A0BD12368DA0708D5236962689A42DEBF302305F8013C05F1FF35C5EB0E03F5
:4020C00023612EE008681A6810F0800F496903D0101D1860136808E010F0400F02F104001860136801D0198000E0196000232361754616E01A68111D19601568002162685B
:40210000284600F049F808B1401B6060636804E004F1420584F8422001232361002384F84330CDF800803B4603AA21463046FFF797FE013002D14FF0FF3026E023692A465A
:4021400039463046C0470130F5D023689B0710D5002504F1190907E001234A4639463046C0470130E7D00135E368039A9B1A9D42F2DBE068039B9842B8BF184605E00B7824
:4021800004F1420584F842308AE705B0BDE8F083632400007424000010B5C9B202449042034605D01C7801308C42F8D1184610BD002010BD884210B501EB020301D8421EF5
:4021C0000BE09842FBD28118D21AD34204D013F8014D01F8014DF8E710BD994204D011F8014B02F8014FF8E710BD000038B50546002944D051F8043C0C1F002BB8BFE418D2
:4022000000F0D4F81E4A1368114613B96360146030E0A3420DD92268A018834201BF18685B681218226063600C6023E0A24203D813465A68002AF9D118681918A1420BD1A4
:402240002168014458188242196013D110685268014419605A600DE002D90C232B6009E021686018824201BF106852680918216062605C602846BDE8384000F098B838BD53
:402280008481FF1F70B5CD1C25F0030508350C2D38BF0C25002D064601DBA94202D90C23336046E000F082F8234B1C681A462146A1B10B685B1B0ED40B2B03D90B60CC188E
:4022C000CD501EE08C420BBF63684B681360636018BF0C4615E00C464968E9E7174C23681BB9304600F052F820602946304600F04DF8431C18D0C41C24F00304A0420DD178
:402300002560304600F053F804F10B00231D20F00700C31A0ED05A42E25070BD211A304600F034F80130EBD10C233360304600F03EF8002070BD00BF8481FF1F8081FF1FF4
:40234000F8B5074615460E4621B91146BDE8F840FFF798BF1AB9FFF749FF2846F8BD00F027F885420ED929463846FFF78BFF044650B131462A46FFF7EDFB31463846FFF700
:4023800035FF01E03046F8BD2046F8BD38B5064C0023054608462360FEF7D4F9431C02D1236803B12B6038BDC481FF1F7047704751F8040C0028BEBF091851F8043CC01840
:4023C000043870470000000048616C6C2020202025000000526F6F6D20202020250000004F4E202020202020202000004F464620202020202020000053656C6563743A2070
:402400002020202000000000436F6E65637400005761726E696E67205420230074256400C84900401900405100403000F0510040100000000140001000140140000800404C
:402440000140000A004C014000020050014020004300232D302B2000686C4C006566674546470030313233343536373839414243444546003031323334353637383961622D
:402480006364656600000000F8B500BFF8BC08BC9E4670474D000000C1070000F8B500BFF8BC08BC9E46704729000000C0240000C880FF1F80000000800000000000000004
:4024C00000000000C881FF1F0000E02EC05D00001800000000366E010000000000000000000000000000000000000000000000000000000000000000502400000000000019
:402500000000000000000000000000000000000000000000000000000000000000000000000000000000000000000000000000000000000000000000E080FF1F000000001D
:40254000000000000000000000000000000000000000000000000000000000000000000000000000000000000000000000000000000000000000000000000000000000005B
:40258000000000000000000000000000000000000000000000000000000000000000000000000000000000000000000000000000000000000000000000000000000000001B
:4025C00000000000000000000000000000000000000000000000000000000000000000000000000000000000000000000000000000000000000000000000000000000000DB
:40260000000000000000000000000000000000000000000000000000000000000000000000000000000000000000000000000000000000000000000000000000000000009A
:020000040003F7
:0200000480007A
:4000000001450040055200400465004059060140330701400209014050140140461501404A1601404A17014001190140011B0140034001400441014003420140044301403F
:4000400009450140084601400847014004480140094901400D4C0140014D01400450014002510140000110051106180219021C01840F85388672870F0201030406020701E9
:4000800009040A041401150419021A041D0221082202240129022E013101320233023401350C3604382039203E444006450449FF4A074BFF4C404D204EF04F0550085804A4
:4000C00059045A045F01604061A862406320840185048A078B018F0896089B07A60CB008B104B202B302B401B508B604B701BE01C020C103C5D5C610C702C81BC9FFCAFF99
:40010000CBFFCDA0CF04D018D280D804D904DA04DB04DC11DD11DF01E040E2C0E440E540E6C0E8C0EAC0ECC0EEC0002001080404074409880B010E100F081308141015410A
:40014000184019181B801C041D801F0421142240238825152E022F0830203648371039283B403E083F224118481049014E044F04502051085401560373408240C076C26418
:40018000C4B4CAA0CC74CEEED006D220E401EE01E401EE010001040E09010E0A100412081608280E300831013201340638203E153F015401580459045B045F01800C82732A
:4001C00084428573880489218B1A8C0F8E709273947F95109764987399429A0C9B199C08A021A463A80CA973B01CB10CB303B40FB570B660BA2ABF01C023C106C205C40182
:40020000C5E0C70CC812C9FFCAFFCBFFCC62CDA0CEF0CF41D00CD418D604D804D904DA04DB04DF01E640E702E910EA30EB10ED10EE10EF12000401020201044006040750E8
:4002400009080A600C800D200E100F801208172619041A881C411D201E101F11210227942F08371439203D043F20452447804D214E02570459065AA05C015D205E106440A8
:400280006709810682088352900491249240930995019618972299029A059B609C409E08A080A10CA20AA308A704C0FDC2FCC472CA20CC60CE64D070D230D68FD8B0EA019B
:4002C00003040504091815081B231D7C1F02211025672718297F2D5C2F21311F334035383B023F045602571259045B045F0183208431851086C687AC88318A4E8B038E5342
:4003000090AC92439430950C9640977199149A08A510A740A909AA8CABD0ADDCAF22B00FB3E0B4F0B51FBA22BB08C025C106C5EBC70CC813C9FFCAFFCBFFCEF0CF44D00C46
:40034000D407D804D904DA04DB04DD10DF01E6C0EA40EB0200040209082009080A400B0410041128122018041A401B11211022082604274428242B012C902D402E102F11D1
:400380003020320836203748380439203A013D023E284004482149024A085108580859115B805E086D046E806F18748076247728820283048440930D95419618980899116B
:4003C0009A019B809C109E089F54A001A115A648A71DA848B780C007C20EC402CAFECC76CEE7D004D20CD64FE840EA0133883440CC702C409C40A788CA803E10A788CE2035
:400400009610A780AB08EE80011004105104550157105820C003D407D6041A809010911095089C20A501A710C60883109010911095089C20A501A710AA4087809610A78000
:40044000E61003405F8083C0AA10C010D620E280E480EA8011021320150879107C10901091109508A501B420C40EDE03E802AB2000030A0310031A03003F03C001000001F5
:400480000000000000000000007F7F000000000000FBFB000000000000030F000F0010000200010202000200000000001000180100000000000000000000000000000000E5
:4004C00000000000000000000000000000000000000000000000000000000000000000000000000000000000000000000000000000000000000000000000000000000000FC
:4005000000000000000000000000000000000000000000000000000000000000000000000000000000000000000000000000000000000000000000000000000000000000BB
:40054000000000000000000000000000000000000000000000000000000000000000000000000000000000000000000000000000000000000000000000000000000000007B
:40058000000000000000000000000000000000000000000000000000000000000000000000000000000000000000000000000000000000000000000000000000000000003B
:0200000490006A
:0400000000004005B7
:0200000490105A
:04000000BC90ACAF55
:0200000490303A
:02000000ED17FA
:0200000490402A
:4000000000000000000000000000000000000000000000000000000000000000000000000000000000000000000000000000000000000000000000000000000000000000C0
:400040000000000000000000000000000000000000000000000000000000000000000000000000000000000000000000000000000000000000000000000000000000000080
:400080000000000000000000000000000000000000000000000000000000000000000000000000000000000000000000000000000000000000000000000000000000000040
:4000C0000000000000000000000000000000000000000000000000000000000000000000000000000000000000000000000000000000000000000000000000000000000000
:0200000490501A
:0C00000000012E16106900012E24FD8066
:00000001FF